:060000000A128A11FC2F18
:100CEA008316031307117C3092000C30831203130E
:100CFA009700053092000800013083160317880018
:100D0A0089018316031305140130831203139F000C
:100D1A008030831603139F0008000D30F200F20B97
:100D2A00942E831203139F149F189C2E9D2E992E86
:100D3A001E08F100831603131E08F0000800013094
:100D4A007102F53003197002031CAC2EAD2EB12EC0
:100D5A00F430F0000130F1007108F3007008F2007D
:100D6A000310F30CF20C0310F30CF20C720883124A
:100D7A00031395007108F3007008F2000310F30CD6
:100D8A00F20C72080139F400F40EF40D1708740617
:100D9A00DF397406970070080139F200F20E17085D
:100DAA007206EF397206970008000030FC00003026
:100DBA00FB000030FA000030F900701CE52EE62E28
:100DCA00FD2E7408F907750803110318013E03196B
:100DDA00EF2EFA07760803110318013E0319F62EBF
:100DEA00FB07770803110318013E0319FD2EFC07C0
:100DFA000130F8000310F40DF50DF60DF70DF80BA0
:100E0A00FF2E01300310F30CF20CF10CF00CFF3E34
:100E1A00031D072F7308720471047004031D162F33
:100E2A00172FE22E7C08F3007B08F2007A08F10003
:100E3A007908F0000800003083120313AB00003079
:100E4A00AA000030A9000030A800230822042104C7
:100E5A0020040319312F322F7D2F0130AC00402F8F
:100E6A000130FD000310A00DA10DA20DA30DFD0B75
:100E7A00372F0130AC07A31F432F442F352F0130E2
:100E8A00FD000310A80DA90DAA0DAB0DFD0B462FF1
:100E9A0023082702031D5B2F22082602031D5B2F4E
:100EAA0021082502031D5B2F20082402031C5E2F44
:100EBA005F2F6E2F2008A4022108031C210FA50210
:100ECA002208031C220FA6022308031C230FA702D1
:100EDA00281401300310A30CA20CA10CA00CFF3E95
:100EEA00031D6F2F0130AC02031D7C2F7D2F442F71
:100EFA002B08A3002A08A2002908A1002808A0009C
:100F0A0008000A128A1181260A128A110A128A1103
:100F1A0075260A128A1183160313061486140810FA
:100F2A00881081138312031386010A128A119226EA
:100F3A000A128A11710883120313B0007008AF00F5
:100F4A000030A3000030A2000330A100FF30A0004F
:100F5A002F08F0003008F100F201F3010030F70029
:100F6A000030F6000130F500F430F4000A128A115C
:100F7A00DA260A128A11730883120313A700720869
:100F8A00A6007108A5007008A4000A128A11202779
:100F9A000A128A11831203132108B2002008B10031
:100FAA003208F1003108F0000A128A11A4260A1246
:100FBA008A11831203130618E32FE42FE72F08146C
:100FCA008810ED2F8618EA2FEB2FED2F08108814C2
:100FDA001A3083120313AE00F730AD00AD0BF32FB6
:100FEA00AE0BF32FF82F9A2F0A128A1100288301C9
:060FFA000A128A11862F85
:04400E00F22FFF3F4F
:00000001FF
