:060000000A128A11FC2F18
:100CFE008316031308108810831203130814881028
:100D0E0008008316031307117C309200831203131D
:100D1E0095010C30970005309200080001308316C3
:100D2E0003178800890183160313051401308312FB
:100D3E0003139F008030831603139F0008000D30AD
:100D4E00F200F20BA82E831203139F149F18B02EDD
:100D5E00B12EAD2E1E08F100831603131E08F000EF
:100D6E00080001307102F43003197002031CC02E0A
:100D7E00C12EC52EF330F0000130F1007108F300E2
:100D8E007008F2000310F30CF20C0310F30CF20CCB
:100D9E00720883120313950070080139F200F20EE7
:100DAE0017087206EF39720697007108F300700883
:100DBE00F2000310F30CF20C72080139F400F40E79
:100DCE00F40D17087406DF3974069700080000301A
:100DDE00FC000030FB000030FA000030F900701CFF
:100DEE00F92EFA2E112F7408F9077508031103183E
:100DFE00013E0319032FFA07760803110318013E6B
:100E0E0003190A2FFB07770803110318013E031974
:100E1E00112FFC070130F8000310F40DF50DF60D3F
:100E2E00F70DF80B132F01300310F30CF20CF10C2D
:100E3E00F00CFF3E031D1B2F730872047104700427
:100E4E00031D2A2F2B2FF62E7C08F3007B08F200B1
:100E5E007A08F1007908F00008000A128A11952626
:100E6E000A128A110A128A1188260A128A110A1285
:100E7E008A117F260A128A110A128A11A6260A12CE
:100E8E008A11710883120313B0007008AF0000308E
:100E9E00A3000030A2000330A100FF30A0002F08F5
:100EAE00F0003008F100F201F3010030F7000030DD
:100EBE00F6000130F500F330F4000A128A11EE2626
:100ECE000A128A11730883120313A7007208A60070
:100EDE007108A5007008A4000A128A1196270A123A
:100EEE008A11831203132108B2002008B1003208C0
:100EFE00F1003108F0000A128A11B8260A128A117E
:100F0E001A3083120313AE00F730AD00AD0B8D2FE8
:100F1E00AE0B8D2F922F432F0A128A11002800300C
:100F2E0083120313AB000030AA000030A90000307A
:100F3E00A80023082204210420040319A72FA82F98
:100F4E00F32F0130AC00B62F0130FD000310A00DC1
:100F5E00A10DA20DA30DFD0BAD2F0130AC07A31FEC
:100F6E00B92FBA2FAB2F0130FD000310A80DA90D1C
:100F7E00AA0DAB0DFD0BBC2F23082702031DD12F8D
:100F8E0022082602031DD12F21082502031DD12F71
:100F9E0020082402031CD42FD52FE42F2008A402EE
:100FAE002108031C210FA5022208031C220FA602F2
:100FBE002308031C230FA702281401300310A30CCF
:100FCE00A20CA10CA00CFF3E031DE52F0130AC02BC
:100FDE00031DF22FF32FBA2F2B08A3002A08A2000D
:100FEE002908A1002808A000080083010A128A110E
:020FFE00342F8E
:04400E00F22FFF3F4F
:00000001FF
